{
    "contractName": "ProxyV3",
    "abi": [
        {
            "inputs": [
                {
                    "internalType": "uint24",
                    "name": "_protocolRate",
                    "type": "uint24"
                }
            ],
            "stateMutability": "nonpayable",
            "type": "constructor"
        },
        {
            "anonymous": false,
            "inputs": [
                {
                    "indexed": false,
                    "internalType": "address",
                    "name": "to",
                    "type": "address"
                },
                {
                    "indexed": false,
                    "internalType": "contract IERC20",
                    "name": "token",
                    "type": "address"
                },
                {
                    "indexed": false,
                    "internalType": "uint256",
                    "name": "commission",
                    "type": "uint256"
                },
                {
                    "indexed": false,
                    "internalType": "uint256",
                    "name": "commissionBalance",
                    "type": "uint256"
                },
                {
                    "indexed": false,
                    "internalType": "uint256",
                    "name": "protocolFee",
                    "type": "uint256"
                },
                {
                    "indexed": false,
                    "internalType": "uint256",
                    "name": "protocolFeeBalance",
                    "type": "uint256"
                }
            ],
            "name": "AddCommission",
            "type": "event"
        },
        {
            "anonymous": false,
            "inputs": [
                {
                    "indexed": true,
                    "internalType": "uint256",
                    "name": "projectId",
                    "type": "uint256"
                },
                {
                    "indexed": true,
                    "internalType": "address",
                    "name": "admin",
                    "type": "address"
                }
            ],
            "name": "AddProjectAdmin",
            "type": "event"
        },
        {
            "anonymous": false,
            "inputs": [
                {
                    "indexed": false,
                    "internalType": "address",
                    "name": "user",
                    "type": "address"
                }
            ],
            "name": "Authorize",
            "type": "event"
        },
        {
            "anonymous": false,
            "inputs": [
                {
                    "indexed": true,
                    "internalType": "address",
                    "name": "from",
                    "type": "address"
                },
                {
                    "indexed": true,
                    "internalType": "contract IERC20",
                    "name": "token",
                    "type": "address"
                },
                {
                    "indexed": false,
                    "internalType": "uint256",
                    "name": "amount",
                    "type": "uint256"
                }
            ],
            "name": "Claim",
            "type": "event"
        },
        {
            "anonymous": false,
            "inputs": [
                {
                    "indexed": true,
                    "internalType": "contract IERC20",
                    "name": "token",
                    "type": "address"
                },
                {
                    "indexed": false,
                    "internalType": "uint256",
                    "name": "amount",
                    "type": "uint256"
                }
            ],
            "name": "ClaimProtocolFee",
            "type": "event"
        },
        {
            "anonymous": false,
            "inputs": [
                {
                    "indexed": false,
                    "internalType": "address",
                    "name": "user",
                    "type": "address"
                }
            ],
            "name": "Deauthorize",
            "type": "event"
        },
        {
            "anonymous": false,
            "inputs": [
                {
                    "indexed": true,
                    "internalType": "uint256",
                    "name": "campaignId",
                    "type": "uint256"
                }
            ],
            "name": "NewCampaign",
            "type": "event"
        },
        {
            "anonymous": false,
            "inputs": [
                {
                    "indexed": true,
                    "internalType": "uint256",
                    "name": "projectId",
                    "type": "uint256"
                }
            ],
            "name": "NewProject",
            "type": "event"
        },
        {
            "anonymous": false,
            "inputs": [
                {
                    "indexed": true,
                    "internalType": "uint256",
                    "name": "projectId",
                    "type": "uint256"
                },
                {
                    "indexed": true,
                    "internalType": "address",
                    "name": "admin",
                    "type": "address"
                }
            ],
            "name": "RemoveProjectAdmin",
            "type": "event"
        },
        {
            "anonymous": false,
            "inputs": [
                {
                    "indexed": false,
                    "internalType": "uint24",
                    "name": "protocolRate",
                    "type": "uint24"
                }
            ],
            "name": "SetProtocolRate",
            "type": "event"
        },
        {
            "anonymous": false,
            "inputs": [
                {
                    "indexed": true,
                    "internalType": "contract IERC20",
                    "name": "token",
                    "type": "address"
                },
                {
                    "indexed": true,
                    "internalType": "address",
                    "name": "to",
                    "type": "address"
                },
                {
                    "indexed": false,
                    "internalType": "uint256",
                    "name": "amount",
                    "type": "uint256"
                }
            ],
            "name": "Skim",
            "type": "event"
        },
        {
            "anonymous": false,
            "inputs": [
                {
                    "indexed": true,
                    "internalType": "uint256",
                    "name": "projectId",
                    "type": "uint256"
                },
                {
                    "indexed": true,
                    "internalType": "contract IERC20",
                    "name": "token",
                    "type": "address"
                },
                {
                    "indexed": false,
                    "internalType": "uint256",
                    "name": "amount",
                    "type": "uint256"
                },
                {
                    "indexed": false,
                    "internalType": "uint256",
                    "name": "balance",
                    "type": "uint256"
                }
            ],
            "name": "Stake",
            "type": "event"
        },
        {
            "anonymous": false,
            "inputs": [
                {
                    "indexed": false,
                    "internalType": "address",
                    "name": "user",
                    "type": "address"
                }
            ],
            "name": "StartOwnershipTransfer",
            "type": "event"
        },
        {
            "anonymous": false,
            "inputs": [
                {
                    "indexed": true,
                    "internalType": "uint256",
                    "name": "projectId",
                    "type": "uint256"
                },
                {
                    "indexed": false,
                    "internalType": "address",
                    "name": "newOwner",
                    "type": "address"
                }
            ],
            "name": "TakeoverProjectOwnership",
            "type": "event"
        },
        {
            "anonymous": false,
            "inputs": [
                {
                    "indexed": true,
                    "internalType": "address",
                    "name": "target",
                    "type": "address"
                },
                {
                    "indexed": true,
                    "internalType": "contract IERC20",
                    "name": "token",
                    "type": "address"
                },
                {
                    "indexed": false,
                    "internalType": "address",
                    "name": "sender",
                    "type": "address"
                },
                {
                    "indexed": false,
                    "internalType": "uint256",
                    "name": "amount",
                    "type": "uint256"
                }
            ],
            "name": "TransferBack",
            "type": "event"
        },
        {
            "anonymous": false,
            "inputs": [
                {
                    "indexed": true,
                    "internalType": "address",
                    "name": "target",
                    "type": "address"
                },
                {
                    "indexed": true,
                    "internalType": "contract IERC20",
                    "name": "token",
                    "type": "address"
                },
                {
                    "indexed": false,
                    "internalType": "address",
                    "name": "sender",
                    "type": "address"
                },
                {
                    "indexed": false,
                    "internalType": "uint256",
                    "name": "amount",
                    "type": "uint256"
                }
            ],
            "name": "TransferForward",
            "type": "event"
        },
        {
            "anonymous": false,
            "inputs": [
                {
                    "indexed": false,
                    "internalType": "address",
                    "name": "user",
                    "type": "address"
                }
            ],
            "name": "TransferOwnership",
            "type": "event"
        },
        {
            "anonymous": false,
            "inputs": [
                {
                    "indexed": true,
                    "internalType": "uint256",
                    "name": "projectId",
                    "type": "uint256"
                },
                {
                    "indexed": false,
                    "internalType": "address",
                    "name": "newOwner",
                    "type": "address"
                }
            ],
            "name": "TransferProjectOwnership",
            "type": "event"
        },
        {
            "inputs": [
                {
                    "internalType": "uint256",
                    "name": "projectId",
                    "type": "uint256"
                },
                {
                    "internalType": "address",
                    "name": "admin",
                    "type": "address"
                }
            ],
            "name": "addProjectAdmin",
            "outputs": [],
            "stateMutability": "nonpayable",
            "type": "function"
        },
        {
            "inputs": [
                {
                    "internalType": "uint256",
                    "name": "",
                    "type": "uint256"
                },
                {
                    "internalType": "contract IERC20",
                    "name": "",
                    "type": "address"
                }
            ],
            "name": "campaignAccumulatedCommission",
            "outputs": [
                {
                    "internalType": "uint256",
                    "name": "",
                    "type": "uint256"
                }
            ],
            "stateMutability": "view",
            "type": "function"
        },
        {
            "inputs": [
                {
                    "internalType": "contract IERC20",
                    "name": "token",
                    "type": "address"
                }
            ],
            "name": "claim",
            "outputs": [],
            "stateMutability": "nonpayable",
            "type": "function"
        },
        {
            "inputs": [
                {
                    "internalType": "contract IERC20[]",
                    "name": "tokens",
                    "type": "address[]"
                }
            ],
            "name": "claimMultiple",
            "outputs": [],
            "stateMutability": "nonpayable",
            "type": "function"
        },
        {
            "inputs": [
                {
                    "internalType": "contract IERC20[]",
                    "name": "tokens",
                    "type": "address[]"
                }
            ],
            "name": "claimMultipleProtocolFee",
            "outputs": [],
            "stateMutability": "nonpayable",
            "type": "function"
        },
        {
            "inputs": [
                {
                    "internalType": "contract IERC20",
                    "name": "token",
                    "type": "address"
                }
            ],
            "name": "claimProtocolFee",
            "outputs": [],
            "stateMutability": "nonpayable",
            "type": "function"
        },
        {
            "inputs": [],
            "name": "claimantIdCount",
            "outputs": [
                {
                    "internalType": "uint256",
                    "name": "",
                    "type": "uint256"
                }
            ],
            "stateMutability": "view",
            "type": "function"
        },
        {
            "inputs": [
                {
                    "internalType": "address",
                    "name": "",
                    "type": "address"
                },
                {
                    "internalType": "contract IERC20",
                    "name": "",
                    "type": "address"
                }
            ],
            "name": "claimantIds",
            "outputs": [
                {
                    "internalType": "uint256",
                    "name": "",
                    "type": "uint256"
                }
            ],
            "stateMutability": "view",
            "type": "function"
        },
        {
            "inputs": [
                {
                    "internalType": "uint256",
                    "name": "",
                    "type": "uint256"
                }
            ],
            "name": "claimantsInfo",
            "outputs": [
                {
                    "internalType": "address",
                    "name": "claimant",
                    "type": "address"
                },
                {
                    "internalType": "contract IERC20",
                    "name": "token",
                    "type": "address"
                },
                {
                    "internalType": "uint256",
                    "name": "balance",
                    "type": "uint256"
                }
            ],
            "stateMutability": "view",
            "type": "function"
        },
        {
            "inputs": [
                {
                    "internalType": "address",
                    "name": "user",
                    "type": "address"
                }
            ],
            "name": "deny",
            "outputs": [],
            "stateMutability": "nonpayable",
            "type": "function"
        },
        {
            "inputs": [
                {
                    "internalType": "uint256",
                    "name": "campaignId",
                    "type": "uint256"
                },
                {
                    "internalType": "bool",
                    "name": "returnArrays",
                    "type": "bool"
                }
            ],
            "name": "getCampaign",
            "outputs": [
                {
                    "components": [
                        {
                            "internalType": "uint256",
                            "name": "projectId",
                            "type": "uint256"
                        },
                        {
                            "internalType": "uint24",
                            "name": "maxInputTokensInEachCall",
                            "type": "uint24"
                        },
                        {
                            "internalType": "uint24",
                            "name": "maxOutputTokensInEachCall",
                            "type": "uint24"
                        },
                        {
                            "internalType": "bool",
                            "name": "referrersRequireApproval",
                            "type": "bool"
                        },
                        {
                            "internalType": "uint64",
                            "name": "startDate",
                            "type": "uint64"
                        },
                        {
                            "internalType": "uint64",
                            "name": "endDate",
                            "type": "uint64"
                        },
                        {
                            "internalType": "bytes24[]",
                            "name": "targetAndSelectors",
                            "type": "bytes24[]"
                        },
                        {
                            "internalType": "contract IERC20[]",
                            "name": "inTokens",
                            "type": "address[]"
                        },
                        {
                            "internalType": "bool[]",
                            "name": "directTransfer",
                            "type": "bool[]"
                        },
                        {
                            "components": [
                                {
                                    "internalType": "uint24",
                                    "name": "rate",
                                    "type": "uint24"
                                },
                                {
                                    "internalType": "uint256",
                                    "name": "capPerTransaction",
                                    "type": "uint256"
                                },
                                {
                                    "internalType": "uint256",
                                    "name": "capPerCampaign",
                                    "type": "uint256"
                                }
                            ],
                            "internalType": "struct ProxyV3.CommissionTokenConfig[]",
                            "name": "commissionInTokenConfig",
                            "type": "tuple[]"
                        },
                        {
                            "internalType": "contract IERC20[]",
                            "name": "outTokens",
                            "type": "address[]"
                        },
                        {
                            "components": [
                                {
                                    "internalType": "uint24",
                                    "name": "rate",
                                    "type": "uint24"
                                },
                                {
                                    "internalType": "uint256",
                                    "name": "capPerTransaction",
                                    "type": "uint256"
                                },
                                {
                                    "internalType": "uint256",
                                    "name": "capPerCampaign",
                                    "type": "uint256"
                                }
                            ],
                            "internalType": "struct ProxyV3.CommissionTokenConfig[]",
                            "name": "commissionOutTokenConfig",
                            "type": "tuple[]"
                        },
                        {
                            "internalType": "address[]",
                            "name": "referrers",
                            "type": "address[]"
                        }
                    ],
                    "internalType": "struct ProxyV3.CampaignParams",
                    "name": "campaign",
                    "type": "tuple"
                }
            ],
            "stateMutability": "view",
            "type": "function"
        },
        {
            "inputs": [
                {
                    "internalType": "uint256",
                    "name": "campaignId",
                    "type": "uint256"
                },
                {
                    "internalType": "uint256",
                    "name": "targetAndSelectorsStart",
                    "type": "uint256"
                },
                {
                    "internalType": "uint256",
                    "name": "targetAndSelectorsLength",
                    "type": "uint256"
                },
                {
                    "internalType": "uint256",
                    "name": "referrersStart",
                    "type": "uint256"
                },
                {
                    "internalType": "uint256",
                    "name": "referrersLength",
                    "type": "uint256"
                }
            ],
            "name": "getCampaignArrayData1",
            "outputs": [
                {
                    "internalType": "bytes24[]",
                    "name": "targetAndSelectors",
                    "type": "bytes24[]"
                },
                {
                    "internalType": "address[]",
                    "name": "referrers",
                    "type": "address[]"
                }
            ],
            "stateMutability": "view",
            "type": "function"
        },
        {
            "inputs": [
                {
                    "internalType": "uint256",
                    "name": "campaignId",
                    "type": "uint256"
                },
                {
                    "internalType": "uint256",
                    "name": "inTokensStart",
                    "type": "uint256"
                },
                {
                    "internalType": "uint256",
                    "name": "inTokensLength",
                    "type": "uint256"
                },
                {
                    "internalType": "uint256",
                    "name": "outTokensStart",
                    "type": "uint256"
                },
                {
                    "internalType": "uint256",
                    "name": "outTokensLength",
                    "type": "uint256"
                }
            ],
            "name": "getCampaignArrayData2",
            "outputs": [
                {
                    "internalType": "contract IERC20[]",
                    "name": "inTokens",
                    "type": "address[]"
                },
                {
                    "internalType": "bool[]",
                    "name": "directTransfer",
                    "type": "bool[]"
                },
                {
                    "components": [
                        {
                            "internalType": "uint24",
                            "name": "rate",
                            "type": "uint24"
                        },
                        {
                            "internalType": "uint256",
                            "name": "capPerTransaction",
                            "type": "uint256"
                        },
                        {
                            "internalType": "uint256",
                            "name": "capPerCampaign",
                            "type": "uint256"
                        }
                    ],
                    "internalType": "struct ProxyV3.CommissionTokenConfig[]",
                    "name": "commissionInTokenConfig",
                    "type": "tuple[]"
                },
                {
                    "internalType": "contract IERC20[]",
                    "name": "outTokens",
                    "type": "address[]"
                },
                {
                    "components": [
                        {
                            "internalType": "uint24",
                            "name": "rate",
                            "type": "uint24"
                        },
                        {
                            "internalType": "uint256",
                            "name": "capPerTransaction",
                            "type": "uint256"
                        },
                        {
                            "internalType": "uint256",
                            "name": "capPerCampaign",
                            "type": "uint256"
                        }
                    ],
                    "internalType": "struct ProxyV3.CommissionTokenConfig[]",
                    "name": "commissionOutTokenConfig",
                    "type": "tuple[]"
                }
            ],
            "stateMutability": "view",
            "type": "function"
        },
        {
            "inputs": [
                {
                    "internalType": "uint256",
                    "name": "campaignId",
                    "type": "uint256"
                }
            ],
            "name": "getCampaignArrayLength",
            "outputs": [
                {
                    "internalType": "uint256",
                    "name": "targetAndSelectorsLength",
                    "type": "uint256"
                },
                {
                    "internalType": "uint256",
                    "name": "inTokensLength",
                    "type": "uint256"
                },
                {
                    "internalType": "uint256",
                    "name": "outTokensLength",
                    "type": "uint256"
                },
                {
                    "internalType": "uint256",
                    "name": "referrersLength",
                    "type": "uint256"
                }
            ],
            "stateMutability": "view",
            "type": "function"
        },
        {
            "inputs": [
                {
                    "internalType": "address",
                    "name": "claimant",
                    "type": "address"
                },
                {
                    "internalType": "contract IERC20",
                    "name": "token",
                    "type": "address"
                }
            ],
            "name": "getClaimantBalance",
            "outputs": [
                {
                    "internalType": "uint256",
                    "name": "",
                    "type": "uint256"
                }
            ],
            "stateMutability": "view",
            "type": "function"
        },
        {
            "inputs": [
                {
                    "internalType": "uint256",
                    "name": "fromId",
                    "type": "uint256"
                },
                {
                    "internalType": "uint256",
                    "name": "count",
                    "type": "uint256"
                }
            ],
            "name": "getClaimantsInfo",
            "outputs": [
                {
                    "components": [
                        {
                            "internalType": "address",
                            "name": "claimant",
                            "type": "address"
                        },
                        {
                            "internalType": "contract IERC20",
                            "name": "token",
                            "type": "address"
                        },
                        {
                            "internalType": "uint256",
                            "name": "balance",
                            "type": "uint256"
                        }
                    ],
                    "internalType": "struct ProxyV3.ClaimantInfo[]",
                    "name": "claimantInfoList",
                    "type": "tuple[]"
                }
            ],
            "stateMutability": "view",
            "type": "function"
        },
        {
            "inputs": [
                {
                    "internalType": "uint256",
                    "name": "projectId",
                    "type": "uint256"
                }
            ],
            "name": "getProject",
            "outputs": [
                {
                    "internalType": "address",
                    "name": "owner",
                    "type": "address"
                },
                {
                    "internalType": "address",
                    "name": "newOwner",
                    "type": "address"
                },
                {
                    "internalType": "address[]",
                    "name": "projectAdmins",
                    "type": "address[]"
                }
            ],
            "stateMutability": "view",
            "type": "function"
        },
        {
            "inputs": [
                {
                    "internalType": "uint256",
                    "name": "projectId",
                    "type": "uint256"
                }
            ],
            "name": "getProjectAdminsLength",
            "outputs": [
                {
                    "internalType": "uint256",
                    "name": "length",
                    "type": "uint256"
                }
            ],
            "stateMutability": "view",
            "type": "function"
        },
        {
            "inputs": [
                {
                    "internalType": "address",
                    "name": "",
                    "type": "address"
                }
            ],
            "name": "isPermitted",
            "outputs": [
                {
                    "internalType": "bool",
                    "name": "",
                    "type": "bool"
                }
            ],
            "stateMutability": "view",
            "type": "function"
        },
        {
            "inputs": [
                {
                    "internalType": "contract IERC20",
                    "name": "",
                    "type": "address"
                }
            ],
            "name": "lastBalance",
            "outputs": [
                {
                    "internalType": "uint256",
                    "name": "",
                    "type": "uint256"
                }
            ],
            "stateMutability": "view",
            "type": "function"
        },
        {
            "inputs": [
                {
                    "components": [
                        {
                            "internalType": "uint256",
                            "name": "projectId",
                            "type": "uint256"
                        },
                        {
                            "internalType": "uint24",
                            "name": "maxInputTokensInEachCall",
                            "type": "uint24"
                        },
                        {
                            "internalType": "uint24",
                            "name": "maxOutputTokensInEachCall",
                            "type": "uint24"
                        },
                        {
                            "internalType": "bool",
                            "name": "referrersRequireApproval",
                            "type": "bool"
                        },
                        {
                            "internalType": "uint64",
                            "name": "startDate",
                            "type": "uint64"
                        },
                        {
                            "internalType": "uint64",
                            "name": "endDate",
                            "type": "uint64"
                        },
                        {
                            "internalType": "bytes24[]",
                            "name": "targetAndSelectors",
                            "type": "bytes24[]"
                        },
                        {
                            "internalType": "contract IERC20[]",
                            "name": "inTokens",
                            "type": "address[]"
                        },
                        {
                            "internalType": "bool[]",
                            "name": "directTransfer",
                            "type": "bool[]"
                        },
                        {
                            "components": [
                                {
                                    "internalType": "uint24",
                                    "name": "rate",
                                    "type": "uint24"
                                },
                                {
                                    "internalType": "uint256",
                                    "name": "capPerTransaction",
                                    "type": "uint256"
                                },
                                {
                                    "internalType": "uint256",
                                    "name": "capPerCampaign",
                                    "type": "uint256"
                                }
                            ],
                            "internalType": "struct ProxyV3.CommissionTokenConfig[]",
                            "name": "commissionInTokenConfig",
                            "type": "tuple[]"
                        },
                        {
                            "internalType": "contract IERC20[]",
                            "name": "outTokens",
                            "type": "address[]"
                        },
                        {
                            "components": [
                                {
                                    "internalType": "uint24",
                                    "name": "rate",
                                    "type": "uint24"
                                },
                                {
                                    "internalType": "uint256",
                                    "name": "capPerTransaction",
                                    "type": "uint256"
                                },
                                {
                                    "internalType": "uint256",
                                    "name": "capPerCampaign",
                                    "type": "uint256"
                                }
                            ],
                            "internalType": "struct ProxyV3.CommissionTokenConfig[]",
                            "name": "commissionOutTokenConfig",
                            "type": "tuple[]"
                        },
                        {
                            "internalType": "address[]",
                            "name": "referrers",
                            "type": "address[]"
                        }
                    ],
                    "internalType": "struct ProxyV3.CampaignParams",
                    "name": "params",
                    "type": "tuple"
                }
            ],
            "name": "newCampaign",
            "outputs": [
                {
                    "internalType": "uint256",
                    "name": "campaignId",
                    "type": "uint256"
                }
            ],
            "stateMutability": "nonpayable",
            "type": "function"
        },
        {
            "inputs": [],
            "name": "newOwner",
            "outputs": [
                {
                    "internalType": "address",
                    "name": "",
                    "type": "address"
                }
            ],
            "stateMutability": "view",
            "type": "function"
        },
        {
            "inputs": [
                {
                    "internalType": "address[]",
                    "name": "admins",
                    "type": "address[]"
                }
            ],
            "name": "newProject",
            "outputs": [
                {
                    "internalType": "uint256",
                    "name": "projectId",
                    "type": "uint256"
                }
            ],
            "stateMutability": "nonpayable",
            "type": "function"
        },
        {
            "inputs": [],
            "name": "owner",
            "outputs": [
                {
                    "internalType": "address",
                    "name": "",
                    "type": "address"
                }
            ],
            "stateMutability": "view",
            "type": "function"
        },
        {
            "inputs": [
                {
                    "internalType": "address",
                    "name": "user",
                    "type": "address"
                }
            ],
            "name": "permit",
            "outputs": [],
            "stateMutability": "nonpayable",
            "type": "function"
        },
        {
            "inputs": [
                {
                    "internalType": "contract IERC20",
                    "name": "",
                    "type": "address"
                }
            ],
            "name": "protocolFeeBalance",
            "outputs": [
                {
                    "internalType": "uint256",
                    "name": "",
                    "type": "uint256"
                }
            ],
            "stateMutability": "view",
            "type": "function"
        },
        {
            "inputs": [],
            "name": "protocolRate",
            "outputs": [
                {
                    "internalType": "uint24",
                    "name": "",
                    "type": "uint24"
                }
            ],
            "stateMutability": "view",
            "type": "function"
        },
        {
            "inputs": [
                {
                    "internalType": "address",
                    "name": "referrer",
                    "type": "address"
                },
                {
                    "internalType": "uint256",
                    "name": "campaignId",
                    "type": "uint256"
                },
                {
                    "internalType": "address",
                    "name": "target",
                    "type": "address"
                },
                {
                    "components": [
                        {
                            "internalType": "contract IERC20",
                            "name": "token",
                            "type": "address"
                        },
                        {
                            "internalType": "uint256",
                            "name": "amount",
                            "type": "uint256"
                        }
                    ],
                    "internalType": "struct ProxyV3.TokensIn[]",
                    "name": "tokensIn",
                    "type": "tuple[]"
                },
                {
                    "internalType": "address",
                    "name": "to",
                    "type": "address"
                },
                {
                    "internalType": "contract IERC20[]",
                    "name": "tokensOut",
                    "type": "address[]"
                },
                {
                    "internalType": "bytes",
                    "name": "data",
                    "type": "bytes"
                }
            ],
            "name": "proxyCall",
            "outputs": [],
            "stateMutability": "payable",
            "type": "function"
        },
        {
            "inputs": [
                {
                    "internalType": "uint256",
                    "name": "projectId",
                    "type": "uint256"
                },
                {
                    "internalType": "address",
                    "name": "admin",
                    "type": "address"
                }
            ],
            "name": "removeProjectAdmin",
            "outputs": [],
            "stateMutability": "nonpayable",
            "type": "function"
        },
        {
            "inputs": [
                {
                    "internalType": "uint24",
                    "name": "newRate",
                    "type": "uint24"
                }
            ],
            "name": "setProtocolRate",
            "outputs": [],
            "stateMutability": "nonpayable",
            "type": "function"
        },
        {
            "inputs": [
                {
                    "internalType": "contract IERC20[]",
                    "name": "tokens",
                    "type": "address[]"
                }
            ],
            "name": "skim",
            "outputs": [],
            "stateMutability": "nonpayable",
            "type": "function"
        },
        {
            "inputs": [
                {
                    "internalType": "uint256",
                    "name": "projectId",
                    "type": "uint256"
                },
                {
                    "internalType": "contract IERC20",
                    "name": "token",
                    "type": "address"
                },
                {
                    "internalType": "uint256",
                    "name": "amount",
                    "type": "uint256"
                }
            ],
            "name": "stake",
            "outputs": [],
            "stateMutability": "nonpayable",
            "type": "function"
        },
        {
            "inputs": [
                {
                    "internalType": "uint256",
                    "name": "projectId",
                    "type": "uint256"
                }
            ],
            "name": "stakeETH",
            "outputs": [],
            "stateMutability": "payable",
            "type": "function"
        },
        {
            "inputs": [
                {
                    "internalType": "uint256",
                    "name": "projectId",
                    "type": "uint256"
                },
                {
                    "internalType": "contract IERC20[]",
                    "name": "token",
                    "type": "address[]"
                },
                {
                    "internalType": "uint256[]",
                    "name": "amount",
                    "type": "uint256[]"
                }
            ],
            "name": "stakeMultiple",
            "outputs": [],
            "stateMutability": "payable",
            "type": "function"
        },
        {
            "inputs": [
                {
                    "internalType": "uint256",
                    "name": "",
                    "type": "uint256"
                },
                {
                    "internalType": "contract IERC20",
                    "name": "",
                    "type": "address"
                }
            ],
            "name": "stakesBalance",
            "outputs": [
                {
                    "internalType": "uint256",
                    "name": "",
                    "type": "uint256"
                }
            ],
            "stateMutability": "view",
            "type": "function"
        },
        {
            "inputs": [],
            "name": "takeOwnership",
            "outputs": [],
            "stateMutability": "nonpayable",
            "type": "function"
        },
        {
            "inputs": [
                {
                    "internalType": "uint256",
                    "name": "projectId",
                    "type": "uint256"
                }
            ],
            "name": "takeoverProjectOwnership",
            "outputs": [],
            "stateMutability": "nonpayable",
            "type": "function"
        },
        {
            "inputs": [
                {
                    "internalType": "address",
                    "name": "newOwner_",
                    "type": "address"
                }
            ],
            "name": "transferOwnership",
            "outputs": [],
            "stateMutability": "nonpayable",
            "type": "function"
        },
        {
            "inputs": [
                {
                    "internalType": "uint256",
                    "name": "projectId",
                    "type": "uint256"
                },
                {
                    "internalType": "address",
                    "name": "newOwner",
                    "type": "address"
                }
            ],
            "name": "transferProjectOwnership",
            "outputs": [],
            "stateMutability": "nonpayable",
            "type": "function"
        },
        {
            "stateMutability": "payable",
            "type": "receive"
        }
    ],
    "bytecode": "60806040523480156200001157600080fd5b5060405162004c6338038062004c63833981016040819052620000349162000097565b600080546001600160a01b031916331790556003805462ffffff831662ffffff1990911681179091556040519081527ffe25e86988ec652fe5401545da69d35d6d22e8bcf8632c423f273264a656d22f9060200160405180910390a150620000c5565b600060208284031215620000aa57600080fd5b815162ffffff81168114620000be57600080fd5b9392505050565b614b8e80620000d56000396000f3fe6080604052600436106102345760003560e01c806399dd15661161012e578063dfecbd8e116100ab578063f2fde38b1161006f578063f2fde38b14610795578063f303ad6e146107b5578063f9492ad3146107d5578063f9738d421461080d578063fec3e5531461082d57600080fd5b8063dfecbd8e146106cc578063e5e05bd7146106ec578063ee42d3a314610719578063f0f3f2c814610746578063f1b5df2a1461077557600080fd5b8063b60c164c116100f2578063b60c164c146105d0578063d224d9ec146105f0578063d2ef84641461061d578063d3b7d4c31461068c578063d4ee1d90146106ac57600080fd5b806399dd15661461052a5780639c52a7f11461055a578063a2f55ae51461057a578063a5184fbf1461059a578063b316d714146105ba57600080fd5b80633fd8cc4e116101bc5780636ecc20da116101805780636ecc20da1461044f5780637eb140341461046257806383e40a511461048257806384fee38e146104ba5780638da5cb5b146104f257600080fd5b80633fd8cc4e14610399578063477b0af9146103d95780634d3c5da1146103ec578063605361721461041a5780636e9c931c1461042f57600080fd5b8063188ff72b11610203578063188ff72b146102f95780631e83409a1461032657806332e879c714610346578063368e9852146103665780633a8c874f1461038657600080fd5b80630455f17714610240578063068c53911461027757806311e9ff02146102995780631333af52146102d957600080fd5b3661023b57005b600080fd5b34801561024c57600080fd5b5061026061025b366004613ed3565b61085e565b60405161026e929190613f52565b60405180910390f35b34801561028357600080fd5b50610297610292366004613fd9565b610a85565b005b3480156102a557600080fd5b506102b96102b4366004614009565b610af2565b60408051948552602085019390935291830152606082015260800161026e565b3480156102e557600080fd5b506102976102f4366004614033565b610b42565b34801561030557600080fd5b50610319610314366004614050565b610b8f565b60405161026e9190614072565b34801561033257600080fd5b506102976103413660046140d7565b610d01565b34801561035257600080fd5b5061029761036136600461413f565b610d0d565b34801561037257600080fd5b50610297610381366004613fd9565b610d77565b610297610394366004614180565b610dd6565b3480156103a557600080fd5b506103c96103b43660046140d7565b60026020526000908152604090205460ff1681565b604051901515815260200161026e565b6102976103e73660046143f5565b610e92565b3480156103f857600080fd5b5061040c610407366004614009565b611544565b60405190815260200161026e565b34801561042657600080fd5b50610297611573565b34801561043b57600080fd5b5061029761044a3660046144bc565b61163d565b61029761045d366004614009565b611648565b34801561046e57600080fd5b5061029761047d366004614009565b611654565b34801561048e57600080fd5b5061040c61049d3660046144f4565b600d60209081526000928352604080842090915290825290205481565b3480156104c657600080fd5b5061040c6104d5366004613fd9565b600960209081526000928352604080842090915290825290205481565b3480156104fe57600080fd5b50600054610512906001600160a01b031681565b6040516001600160a01b03909116815260200161026e565b34801561053657600080fd5b506003546105469062ffffff1681565b60405162ffffff909116815260200161026e565b34801561056657600080fd5b506102976105753660046140d7565b611730565b34801561058657600080fd5b506102976105953660046140d7565b611798565b3480156105a657600080fd5b5061040c6105b536600461413f565b611803565b3480156105c657600080fd5b5061040c600b5481565b3480156105dc57600080fd5b506102976105eb36600461413f565b611932565b3480156105fc57600080fd5b5061061061060b366004614530565b611aba565b60405161026e919061460d565b34801561062957600080fd5b50610666610638366004614009565b600c602052600090815260409020805460018201546002909201546001600160a01b03918216929091169083565b604080516001600160a01b0394851681529390921660208401529082015260600161026e565b34801561069857600080fd5b5061040c6106a73660046144f4565b61205a565b3480156106b857600080fd5b50600154610512906001600160a01b031681565b3480156106d857600080fd5b506102976106e7366004613fd9565b612094565b3480156106f857600080fd5b5061040c6107073660046140d7565b60046020526000908152604090205481565b34801561072557600080fd5b5061040c6107343660046140d7565b60056020526000908152604090205481565b34801561075257600080fd5b50610766610761366004614009565b61213f565b60405161026e9392919061474e565b34801561078157600080fd5b5061040c610790366004614783565b61222e565b3480156107a157600080fd5b506102976107b03660046140d7565b6129fa565b3480156107c157600080fd5b506102976107d036600461413f565b612a5f565b3480156107e157600080fd5b5061040c6107f0366004613fd9565b600a60209081526000928352604080842090915290825290205481565b34801561081957600080fd5b506102976108283660046140d7565b612aac565b34801561083957600080fd5b5061084d610848366004613ed3565b612acc565b60405161026e9594939291906147be565b6060806000600788815481106108765761087661482b565b90600052602060002090600b020190506000816002018054905088111561089f57600282015497505b60028201546108ae888a614857565b11156108c75760028201546108c490899061486a565b96505b866001600160401b038111156108df576108df6141f9565b604051908082528060200260200182016040528015610908578160200160208202803683370190505b5093505b8681101561097e57600282016109228983614857565b815481106109325761093261482b565b9060005260206000200160009054906101000a900460401b84828151811061095c5761095c61482b565b67ffffffffffffffff199092166020928302919091019091015260010161090c565b50600981015460009086111561099657600982015495505b60098201546109a58688614857565b11156109be5760098201546109bb90879061486a565b94505b846001600160401b038111156109d6576109d66141f9565b6040519080825280602002602001820160405280156109ff578160200160208202803683370190505b5092505b84811015610a795760098201610a198783614857565b81548110610a2957610a2961482b565b9060005260206000200160009054906101000a90046001600160a01b0316838281518110610a5957610a5961482b565b6001600160a01b0390921660209283029190910190910152600101610a03565b50509550959350505050565b600060068381548110610a9a57610a9a61482b565b6000918252602090912060049091020160018101549091506001600160a01b03163314610ae25760405162461bcd60e51b8152600401610ad99061487d565b60405180910390fd5b610aed838284612fb3565b505050565b600080600080600060078681548110610b0d57610b0d61482b565b60009182526020909120600b909102016002810154600482015460058301546009909301549199909850919650945092505050565b6003805462ffffff191662ffffff83169081179091556040519081527ffe25e86988ec652fe5401545da69d35d6d22e8bcf8632c423f273264a656d22f906020015b60405180910390a150565b6060600083118015610ba35750600b548311155b610bdf5760405162461bcd60e51b815260206004820152600d60248201526c6f7574206f6620626f756e647360981b6044820152606401610ad9565b600083600b54610bef919061486a565b610bfa906001614857565b905080831115610c08578092505b826001600160401b03811115610c2057610c206141f9565b604051908082528060200260200182016040528015610c6b57816020015b6040805160608101825260008082526020808301829052928201528252600019909201910181610c3e5790505b5091508360005b84811015610cf8576000828152600c6020908152604091829020825160608101845281546001600160a01b0390811682526001830154169281019290925260020154918101919091528451859083908110610ccf57610ccf61482b565b602002602001018190525081610ce4906148a5565b915080610cf0816148a5565b915050610c72565b50505092915050565b610d0a8161306f565b50565b6000546001600160a01b03163314610d2457600080fd5b8060005b81811015610d7157610d5f848483818110610d4557610d4561482b565b9050602002016020810190610d5a91906140d7565b613165565b80610d69816148a5565b915050610d28565b50505050565b600060068381548110610d8c57610d8c61482b565b6000918252602090912060049091020160018101549091506001600160a01b03163314610dcb5760405162461bcd60e51b8152600401610ad99061487d565b610aed83828461320f565b82818114610e1b5760405162461bcd60e51b81526020600482015260126024820152711b195b99dd1a081b9bdd081b585d18da195960721b6044820152606401610ad9565b60005b81811015610e7757610e6f87878784818110610e3c57610e3c61482b565b9050602002016020810190610e5191906140d7565b868685818110610e6357610e6361482b565b905060200201356133bb565b600101610e1e565b3415610e8957610e89876000346133bb565b50505050505050565b6007548610610ed65760405162461bcd60e51b815260206004820152601060248201526f34b73b30b634b21031b0b6b830b4b3b760811b6044820152606401610ad9565b600060078781548110610eeb57610eeb61482b565b90600052602060002090600b020190508060030160008784610f0c906148be565b60405160609290921b6bffffffffffffffffffffffff191660208301526001600160e01b0319166034820152603801604051602081830303815290604052610f53906148f5565b67ffffffffffffffff1916815260208101919091526040016000205460ff16610fb55760405162461bcd60e51b81526020600482015260146024820152731cd95b1958dd1bdc881b9bdd081b585d18da195960621b6044820152606401610ad9565b600181015442600160381b9091046001600160401b031611801590610fee57506001810154600160781b90046001600160401b03164211155b61104b5760405162461bcd60e51b815260206004820152602860248201527f63616d706169676e206e6f74207374617274656420796574202f20616c726561604482015267191e48195b99195960c21b6064820152608401610ad9565b6001810154600160301b900460ff1680156110695750600981015415155b80156110b957506001600160a01b0388166000818152600a8301602052604090205460098301805490919081106110a2576110a261482b565b6000918252602090912001546001600160a01b0316145b6110f65760405162461bcd60e51b815260206004820152600e60248201526d3737ba1030903932b332b93932b960911b6044820152606401610ad9565b845160018201546000919062ffffff168111156111555760405162461bcd60e51b815260206004820152601760248201527f696e546f6b656e206c656e6774682065786365656465640000000000000000006044820152606401610ad9565b60005b8181101561132e5760008882815181106111745761117461482b565b602002602001015160000151905060008983815181106111965761119661482b565b602002602001015160200151905060006001600160a01b0316826001600160a01b03160361125c57841561120c5760405162461bcd60e51b815260206004820152601a60248201527f6d6f7265207468616e206f6e6520455448207472616e736665720000000000006044820152606401610ad9565b8034146112545760405162461bcd60e51b815260206004820152601660248201527511551208185b5bdd5b9d081b9bdd081b585d18da195960521b6044820152606401610ad9565b8094506112ce565b6001600160a01b038216600090815260068701602052604090205460ff1615611299576112946001600160a01b038316338d8461349c565b6112ce565b6112a38282613507565b90506112ba6001600160a01b0383168c6000613604565b6112ce6001600160a01b0383168c83613604565b60408051338152602081018390526001600160a01b0380851692908e16917fbe526fefdf314c4faee4a30e01b840fe0c1517bd7fc9295829eb6d8441e80b18910160405180910390a3611324868d8f8585613719565b5050600101611158565b600080865187602001868d5af18060000361134d573d6000803e3d6000fd5b50855160018501549092506301000000900462ffffff168211156113b35760405162461bcd60e51b815260206004820152601860248201527f6f7574546f6b656e206c656e67746820657863656564656400000000000000006044820152606401610ad9565b5060005b8181101561153a5760008682815181106113d3576113d361482b565b602002602001015190506000806001600160a01b0316826001600160a01b03160361143e576000805260056020527f05b8ccbb9d4d8fb16ea74ce3c29a41f1b461fbdaff4714a0d9a8eb05499746bc5461142d904761486a565b90506114398982613ac9565b6114d8565b6001600160a01b038216600081815260056020526040908190205490516370a0823160e01b81523060048201529091906370a0823190602401602060405180830381865afa158015611494573d6000803e3d6000fd5b505050506040513d601f19601f820116820180604052508101906114b89190614929565b6114c2919061486a565b90506114d86001600160a01b0383168a83613b7c565b6114e5868d8f8585613719565b604080516001600160a01b038b811682526020820184905280851692908e16917fc2534859c9972270c16d5b4255d200f9a0385f9a6ce3add96c0427ff9fc70f93910160405180910390a350506001016113b7565b3d6000803e3d6000f35b6000600682815481106115595761155961482b565b600091825260209091206002600490920201015492915050565b6001546001600160a01b031633146115df5760405162461bcd60e51b815260206004820152602960248201527f416374696f6e20706572666f726d656420627920756e617574686f72697a65646044820152681030b2323932b9b99760b91b6064820152608401610ad9565b60018054600080546001600160a01b0383166001600160a01b031991821681179092559091169091556040519081527fcfaaa26691e16e66e73290fc725eee1a6b4e0e693a1640484937aac25ffb55a49060200160405180910390a1565b610aed8383836133bb565b610d0a816000346133bb565b6000600682815481106116695761166961482b565b6000918252602090912060049091020160018101549091506001600160a01b031633146116a85760405162461bcd60e51b8152600401610ad99061487d565b80546116c090839083906001600160a01b031661320f565b80546001600160a01b03199081163317825560018083018054909216909155546116f690839083906001600160a01b0316612fb3565b60405133815282907fcae10d66f75f577faa75ec3d290ee81497368211d6817451dae38673b5ccf992906020015b60405180910390a25050565b6000546001600160a01b0316331461174757600080fd5b6001600160a01b038116600081815260026020908152604091829020805460ff1916905590519182527f79ede3839cd7a7d8bd77e97e5c890565fe4f76cdbbeaa364646e28a8695a78849101610b84565b6000546001600160a01b031633146117af57600080fd5b6001600160a01b038116600081815260026020908152604091829020805460ff1916600117905590519182527f6d81a01b39982517ba331aeb4f387b0f9cc32334b65bb9a343a077973cf7adf59101610b84565b60068054600181018083556000838152919290839081106118265761182661482b565b60009182526020808320600490920290910180546001600160a01b03199081163390811783556002830180546001810182559086528486200180549092168117909155835260038101909152604082208290559150835b808210156118fe5760008686848181106118995761189961482b565b90506020020160208101906118ae91906140d7565b600285018054600181810183556000928352602080842090920180546001600160a01b039095166001600160a01b031990951685179055928252600387019052604090209301928390555061187d565b60405184907fd78a25afe0b6160e2dc1fc71b2845c76cc268398d17be04665b78ba59b47440790600090a250505092915050565b8060005b81811015610d71576000808585848181106119535761195361482b565b905060200201602081019061196891906140d7565b90506001600160a01b0381166119c1576000805260056020527f05b8ccbb9d4d8fb16ea74ce3c29a41f1b461fbdaff4714a0d9a8eb05499746bc544792506119b0908361486a565b91506119bc3383613ac9565b611a65565b6040516370a0823160e01b81523060048201526001600160a01b038216906370a0823190602401602060405180830381865afa158015611a05573d6000803e3d6000fd5b505050506040513d601f19601f82011682018060405250810190611a299190614929565b6001600160a01b038216600090815260056020526040902054909250611a4f908361486a565b9150611a656001600160a01b0382163384613b7c565b60405182815233906001600160a01b038316907f2ae72b44f59d038340fca5739135a1d51fc5ab720bb02d983e4c5ff4119ca7b89060200160405180910390a350508080611ab2906148a5565b915050611936565b611b43604051806101a0016040528060008152602001600062ffffff168152602001600062ffffff16815260200160001515815260200160006001600160401b0316815260200160006001600160401b03168152602001606081526020016060815260200160608152602001606081526020016060815260200160608152602001606081525090565b600060078481548110611b5857611b5861482b565b6000918252602091829020600b9091020180548452600181015462ffffff8082169386019390935263010000008104909216604085015260ff600160301b830416151560608501526001600160401b03600160381b830481166080860152600160781b90920490911660a0840152905082156120535780600201805480602002602001604051908101604052809291908181526020018280548015611c2b57602002820191906000526020600020905b815460401b67ffffffffffffffff19168152600190910190602001808311611c08575b505050505060c08301526004810180546040805160208084028201810190925282815260009390918390830182828015611c8e57602002820191906000526020600020905b81546001600160a01b03168152600190910190602001808311611c70575b50505050508460e00181905250806001600160401b03811115611cb357611cb36141f9565b604051908082528060200260200182016040528015611cdc578160200160208202803683370190505b50610100850152806001600160401b03811115611cfb57611cfb6141f9565b604051908082528060200260200182016040528015611d5557816020015b611d426040518060600160405280600062ffffff16815260200160008152602001600081525090565b815260200190600190039081611d195790505b506101208501525b80821015611e6a57826006016000846004018481548110611d8057611d8061482b565b60009182526020808320909101546001600160a01b03168352820192909252604001902054610100850151805160ff9092169184908110611dc357611dc361482b565b602002602001019015159081151581525050826007016000846004018481548110611df057611df061482b565b60009182526020808320909101546001600160a01b0316835282810193909352604091820190208151606081018352815462ffffff1681526001820154938101939093526002015490820152610120850151805184908110611e5457611e5461482b565b6020908102919091010152600190910190611d5d565b50506005810180546040805160208084028201810190925282815260009390918390830182828015611ec557602002820191906000526020600020905b81546001600160a01b03168152600190910190602001808311611ea7575b5050505050846101400181905250806001600160401b03811115611eeb57611eeb6141f9565b604051908082528060200260200182016040528015611f4557816020015b611f326040518060600160405280600062ffffff16815260200160008152602001600081525090565b815260200190600190039081611f095790505b506101608501525b80821015611fea57826008016000846005018481548110611f7057611f7061482b565b60009182526020808320909101546001600160a01b0316835282810193909352604091820190208151606081018352815462ffffff1681526001820154938101939093526002015490820152610160850151805184908110611fd457611fd461482b565b6020908102919091010152600190910190611f4d565b8260090180548060200260200160405190810160405280929190818152602001828054801561204257602002820191906000526020600020905b81546001600160a01b03168152600190910190602001808311612024575b505050505084610180018190525050505b5092915050565b6001600160a01b038083166000908152600d602090815260408083209385168352928152828220548252600c905220600201545b92915050565b6000600683815481106120a9576120a961482b565b6000918252602090912060049091020180549091506001600160a01b031633146120e55760405162461bcd60e51b8152600401610ad99061487d565b6001810180546001600160a01b0319166001600160a01b03841690811790915560405190815283907fd76f6b3fb9ea3802f0403d54d37db427cea79df08cd8817552eb23790d2b54919060200160405180910390a2505050565b60008060606000600685815481106121595761215961482b565b600091825260209091206004909102018054600182015460028301546001600160a01b039283169750911694509091506001600160401b038111156121a0576121a06141f9565b6040519080825280602002602001820160405280156121c9578160200160208202803683370190505b506002820180546040805160208084028201810190925282815293955083018282801561221f57602002820191906000526020600020905b81546001600160a01b03168152600190910190602001808311612201575b50505050509150509193909250565b6006546000908235106122775760405162461bcd60e51b8152602060048201526011602482015270125b9d985b1a59081c1c9bda9958dd1259607a1b6044820152606401610ad9565b600060068360000135815481106122905761229061482b565b60009182526020808320338085526004939093020160038101909152604090922054600283018054939450919281106122cb576122cb61482b565b6000918252602090912001546001600160a01b0316146123235760405162461bcd60e51b81526020600482015260136024820152723737ba103090383937b532b1ba1030b236b4b760691b6044820152606401610ad9565b61233360c0840160a08501614942565b6001600160401b031661234c60a0850160808601614942565b6001600160401b0316111561239b5760405162461bcd60e51b8152602060048201526015602482015274696e76616c69642063616d706169676e206461746560581b6044820152606401610ad9565b600780548435600090815260086020908152604082208054600181810183559184529183209091018390558354018084558382529194509190849081106123e4576123e461482b565b60009182526020918290208635600b90920201908155915061240c9060408601908601614033565b60018201805462ffffff191662ffffff929092169190911790556124366060850160408601614033565b60018201805462ffffff9290921663010000000265ffffff0000001990921691909117905561246b608085016060860161496b565b600182018054911515600160301b0266ff0000000000001990921691909117905561249c60a0850160808601614942565b6001820180546001600160401b0392909216600160381b026effffffffffffffff00000000000000199092169190911790556124de60c0850160a08601614942565b6001820180546001600160401b0392909216600160781b0267ffffffffffffffff60781b1990921691909117905560008061251c60c0870187614988565b915061252d905060c0870187614988565b61253b916002860191613e0e565b505b808210156125b557600160038401600061255a60c08a018a614988565b8681811061256a5761256a61482b565b905060200201602081019061257f91906149d1565b67ffffffffffffffff191681526020810191909152604001600020805460ff19169115159190911790556001919091019061253d565b600091506125c660e0870187614988565b91506125d89050610100870187614988565b9050811480156125f657506125f16101208701876149fc565b905081145b61264d5760405162461bcd60e51b815260206004820152602260248201527f696e20746f6b656e20636f6e666967206c656e677468206e6f74206d61746368604482015261195960f21b6064820152608401610ad9565b61265a60e0870187614988565b612668916004860191613e6b565b505b8082101561279457612680610100870187614988565b838181106126905761269061482b565b90506020020160208101906126a5919061496b565b6006840160006126b860e08a018a614988565b868181106126c8576126c861482b565b90506020020160208101906126dd91906140d7565b6001600160a01b031681526020810191909152604001600020805460ff19169115159190911790556127136101208701876149fc565b838181106127235761272361482b565b905060600201836007016000888060e0019061273f9190614988565b8681811061274f5761274f61482b565b905060200201602081019061276491906140d7565b6001600160a01b0316815260208101919091526040016000206127878282614a44565b505060019091019061266a565b600091506127a6610140870187614988565b91506127b890506101608701876149fc565b905081146128145760405162461bcd60e51b815260206004820152602360248201527f6f757420746f6b656e20636f6e666967206c656e677468206e6f74206d6174636044820152621a195960ea1b6064820152608401610ad9565b612822610140870187614988565b612830916005860191613e6b565b505b808210156128ca576128486101608701876149fc565b838181106128585761285861482b565b905060600201836008016000888061014001906128759190614988565b868181106128855761288561482b565b905060200201602081019061289a91906140d7565b6001600160a01b0316815260208101919091526040016000206128bd8282614a44565b5050600190910190612832565b600091506128dc610180870187614988565b9150508015156128f2608088016060890161496b565b1515146129415760405162461bcd60e51b815260206004820152601860248201527f696e76616c696420726566657272657273206c656e67746800000000000000006044820152606401610ad9565b61294f610180870187614988565b61295d916009860191613e6b565b505b808210156129c65781600a8401600061297c6101808a018a614988565b8681811061298c5761298c61482b565b90506020020160208101906129a191906140d7565b6001600160a01b0316815260208101919091526040016000205560019091019061295f565b60405185907ff91d5ca55c5415a1aa70a5dfde98765e180ec8b56375e3de9149ee89efc28f9d90600090a250505050919050565b6000546001600160a01b03163314612a1157600080fd5b600180546001600160a01b0319166001600160a01b0383169081179091556040519081527f686a7ab184e6928ddedba810af7b443d6baa40bf32c4787ccd72c5b4b28cae1b90602001610b84565b8060005b81811015610d7157612a9a848483818110612a8057612a8061482b565b9050602002016020810190612a9591906140d7565b61306f565b80612aa4816148a5565b915050612a63565b6000546001600160a01b03163314612ac357600080fd5b610d0a81613165565b6060806060806060600060078b81548110612ae957612ae961482b565b90600052602060002090600b02019050600081600401805490508b1115612b125760048201549a505b6004820154612b218b8d614857565b1115612b3a576004820154612b37908c9061486a565b99505b896001600160401b03811115612b5257612b526141f9565b604051908082528060200260200182016040528015612b7b578160200160208202803683370190505b509650896001600160401b03811115612b9657612b966141f9565b604051908082528060200260200182016040528015612bbf578160200160208202803683370190505b509550896001600160401b03811115612bda57612bda6141f9565b604051908082528060200260200182016040528015612c3457816020015b612c216040518060600160405280600062ffffff16815260200160008152602001600081525090565b815260200190600190039081612bf85790505b5094505b89811015612daa5760048201612c4e8c83614857565b81548110612c5e57612c5e61482b565b9060005260206000200160009054906101000a90046001600160a01b0316878281518110612c8e57612c8e61482b565b60200260200101906001600160a01b031690816001600160a01b031681525050816006016000888381518110612cc657612cc661482b565b60200260200101516001600160a01b03166001600160a01b0316815260200190815260200160002060009054906101000a900460ff16868281518110612d0e57612d0e61482b565b602002602001019015159081151581525050816007016000888381518110612d3857612d3861482b565b6020908102919091018101516001600160a01b031682528181019290925260409081016000208151606081018352815462ffffff16815260018201549381019390935260020154908201528551869083908110612d9757612d9761482b565b6020908102919091010152600101612c38565b506005810154600090891115612dc257600582015498505b6005820154612dd1898b614857565b1115612dea576005820154612de7908a9061486a565b97505b876001600160401b03811115612e0257612e026141f9565b604051908082528060200260200182016040528015612e2b578160200160208202803683370190505b509350876001600160401b03811115612e4657612e466141f9565b604051908082528060200260200182016040528015612ea057816020015b612e8d6040518060600160405280600062ffffff16815260200160008152602001600081525090565b815260200190600190039081612e645790505b5092505b87811015612fa45760058201612eba8a83614857565b81548110612eca57612eca61482b565b9060005260206000200160009054906101000a90046001600160a01b0316848281518110612efa57612efa61482b565b60200260200101906001600160a01b031690816001600160a01b031681525050816008016000858381518110612f3257612f3261482b565b6020908102919091018101516001600160a01b031682528181019290925260409081016000208151606081018352815462ffffff16815260018201549381019390935260020154908201528351849083908110612f9157612f9161482b565b6020908102919091010152600101612ea4565b50509550955095509550959050565b6001600160a01b03811660008181526003840160205260409020546002840180549091908110612fe557612fe561482b565b6000918252602090912001546001600160a01b031614610aed576002820180546001600160a01b03831660008181526003860160209081526040808320859055600185018655948252812090920180546001600160a01b03191682179055915185917f1c3cea70d3dcea4dc82722f4fb7300d19f76e272a8349e73a99780429f2c151691a3505050565b336000908152600d602090815260408083206001600160a01b0385811680865291845282852054808652600c855283862084516060810186528154841681526001820154909316838701526002018054838601819052908790559286526005909452918420805493949293919283926130e990849061486a565b90915550506001600160a01b03841661310b576131063382613ac9565b61311f565b61311f6001600160a01b0385163383613b7c565b6040518181526001600160a01b0385169033907f70eb43c4a8ae8c40502dcf22436c509c28d6ff421cf07c491be56984bd9870689060200160405180910390a350505050565b6001600160a01b03811660009081526004602090815260408083208054908490556005909252822080549192839261319e90849061486a565b90915550506001600160a01b0382166131c0576131bb3382613ac9565b6131d4565b6131d46001600160a01b0383163383613b7c565b816001600160a01b03167f6ec620dc21a80aff1281aac3592cbd6b0554bbf810aa4b75338ef3cc9ae1a66c8260405161172491815260200190565b6001600160a01b0381166000818152600384016020526040902054600284018054919291839081106132435761324361482b565b6000918252602090912001546001600160a01b0316146132945760405162461bcd60e51b815260206004820152600c60248201526b3737ba1030b71030b236b4b760a11b6044820152606401610ad9565b60028301546000906132a89060019061486a565b90508082146133365760008460020182815481106132c8576132c861482b565b6000918252602090912001546002860180546001600160a01b0390921692508291859081106132f9576132f961482b565b600091825260208083209190910180546001600160a01b0319166001600160a01b0394851617905592909116815260038601909152604090208290555b8360020180548061334957613349614a79565b60008281526020808220830160001990810180546001600160a01b03191690559092019092556001600160a01b03851680835260038701909152604080832083905551909187917fe76d77167882521e5d6872e780957ffd683d0e4710f4f159f4170fa42589387b9190a35050505050565b6001600160a01b038216156133d7576133d48282613507565b90505b60008381526009602090815260408083206001600160a01b038616845290915281208054839290613409908490614857565b90915550506001600160a01b03821660009081526005602052604081208054839290613436908490614857565b909155505060008381526009602090815260408083206001600160a01b038616808552908352928190205481518581529283015285917f507ac39eb33610191cd8fd54286e91c5cc464c262861643be3978f5a9f18ab02910160405180910390a3505050565b6040516001600160a01b0380851660248301528316604482015260648101829052610d719085906323b872dd60e01b906084015b60408051601f198184030181529190526020810180516001600160e01b03166001600160e01b031990931692909217909152613bac565b6040516370a0823160e01b81523060048201526000906001600160a01b038416906370a0823190602401602060405180830381865afa15801561354e573d6000803e3d6000fd5b505050506040513d601f19601f820116820180604052508101906135729190614929565b90506135896001600160a01b03841633308561349c565b6040516370a0823160e01b815230600482015281906001600160a01b038516906370a0823190602401602060405180830381865afa1580156135cf573d6000803e3d6000fd5b505050506040513d601f19601f820116820180604052508101906135f39190614929565b6135fd919061486a565b9392505050565b80158061367e5750604051636eb1769f60e11b81523060048201526001600160a01b03838116602483015284169063dd62ed3e90604401602060405180830381865afa158015613658573d6000803e3d6000fd5b505050506040513d601f19601f8201168201806040525081019061367c9190614929565b155b6136e95760405162461bcd60e51b815260206004820152603660248201527f5361666545524332303a20617070726f76652066726f6d206e6f6e2d7a65726f60448201527520746f206e6f6e2d7a65726f20616c6c6f77616e636560501b6064820152608401610ad9565b6040516001600160a01b038316602482015260448101829052610aed90849063095ea7b360e01b906064016134d0565b84546001600160a01b03831660009081526008870160205260409020805462ffffff1615610e89578054620f4240906137579062ffffff1685614a8f565b6137619190614aa6565b925080600101548311156137a65760405162461bcd60e51b815260206004820152600c60248201526b18d85c08195e18d95959195960a21b6044820152606401610ad9565b600354600090620f4240906137c09062ffffff1686614a8f565b6137ca9190614aa6565b6001600160a01b0386166000908152600460205260408120805492935083929091906137f7908490614857565b90915550600090506138098286614857565b60008581526009602090815260408083206001600160a01b038b1684529091529020549091508111156138765760405162461bcd60e51b81526020600482015260156024820152743737ba1032b737bab3b41031b7b6b6b4b9b9b4b7b760591b6044820152606401610ad9565b60008481526009602090815260408083206001600160a01b038a16808552908352818420805486900390558b8452600a8352818420908452909152812080548392906138c3908490614857565b909155505060028301546000898152600a602090815260408083206001600160a01b038b168452909152902054111561394c5760405162461bcd60e51b815260206004820152602560248201527f616363756d756c6174656420636f6d6d697373696f6e206578636565646564206044820152641b1a5b5a5d60da1b6064820152608401610ad9565b6001600160a01b038088166000908152600d60209081526040808320938a1683529290529081205490819003613a1857600b6000815461398b906148a5565b90915550604080516060810182526001600160a01b03808b168083528a821660208085018281528587018d8152600b80546000908152600c8552898120985189549089166001600160a01b0319918216178a55935160018a01805491909916941693909317909655516002909601959095559254918452600d835284842090845290915291902055613a3f565b6000818152600c602052604081206002018054889290613a39908490614857565b90915550505b6000818152600c60209081526040808320600201546001600160a01b038b81168086526004855294839020548351918e1682529381019490945290830189905260608301526080820185905260a08201527fac98d1de12ec7e306f0033236185d2a9d904bb054995aa9987c7d5a6d7ff4c579060c00160405180910390a150505050505050505050565b604080516000808252602082019092526001600160a01b038416908390604051613af39190614aec565b60006040518083038185875af1925050503d8060008114613b30576040519150601f19603f3d011682016040523d82523d6000602084013e613b35565b606091505b5050905080610aed5760405162461bcd60e51b815260206004820152601360248201527211551217d514905394d1915497d19052531151606a1b6044820152606401610ad9565b6040516001600160a01b038316602482015260448101829052610aed90849063a9059cbb60e01b906064016134d0565b6000613c01826040518060400160405280602081526020017f5361666545524332303a206c6f772d6c6576656c2063616c6c206661696c6564815250856001600160a01b0316613c7e9092919063ffffffff16565b805190915015610aed5780806020019051810190613c1f9190614b08565b610aed5760405162461bcd60e51b815260206004820152602a60248201527f5361666545524332303a204552433230206f7065726174696f6e20646964206e6044820152691bdd081cdd58d8d9595960b21b6064820152608401610ad9565b6060613c8d8484600085613c95565b949350505050565b606082471015613cf65760405162461bcd60e51b815260206004820152602660248201527f416464726573733a20696e73756666696369656e742062616c616e636520666f6044820152651c8818d85b1b60d21b6064820152608401610ad9565b600080866001600160a01b03168587604051613d129190614aec565b60006040518083038185875af1925050503d8060008114613d4f576040519150601f19603f3d011682016040523d82523d6000602084013e613d54565b606091505b5091509150613d6587838387613d70565b979650505050505050565b60608315613ddf578251600003613dd8576001600160a01b0385163b613dd85760405162461bcd60e51b815260206004820152601d60248201527f416464726573733a2063616c6c20746f206e6f6e2d636f6e74726163740000006044820152606401610ad9565b5081613c8d565b613c8d8383815115613df45781518083602001fd5b8060405162461bcd60e51b8152600401610ad99190614b25565b828054828255906000526020600020908101928215613e5b579160200282015b82811115613e5b5781546001600160c01b031916833560401c178255602090920191600190910190613e2e565b50613e67929150613ebe565b5090565b828054828255906000526020600020908101928215613e5b579160200282015b82811115613e5b5781546001600160a01b0319166001600160a01b03843516178255602090920191600190910190613e8b565b5b80821115613e675760008155600101613ebf565b600080600080600060a08688031215613eeb57600080fd5b505083359560208501359550604085013594606081013594506080013592509050565b600081518084526020808501945080840160005b83811015613f475781516001600160a01b031687529582019590820190600101613f22565b509495945050505050565b604080825283519082018190526000906020906060840190828701845b82811015613f9657815167ffffffffffffffff191684529284019290840190600101613f6f565b50505083810382850152613faa8186613f0e565b9695505050505050565b6001600160a01b0381168114610d0a57600080fd5b8035613fd481613fb4565b919050565b60008060408385031215613fec57600080fd5b823591506020830135613ffe81613fb4565b809150509250929050565b60006020828403121561401b57600080fd5b5035919050565b62ffffff81168114610d0a57600080fd5b60006020828403121561404557600080fd5b81356135fd81614022565b6000806040838503121561406357600080fd5b50508035926020909101359150565b602080825282518282018190526000919060409081850190868401855b828110156140ca57815180516001600160a01b039081168652878201511687860152850151858501526060909301929085019060010161408f565b5091979650505050505050565b6000602082840312156140e957600080fd5b81356135fd81613fb4565b60008083601f84011261410657600080fd5b5081356001600160401b0381111561411d57600080fd5b6020830191508360208260051b850101111561413857600080fd5b9250929050565b6000806020838503121561415257600080fd5b82356001600160401b0381111561416857600080fd5b614174858286016140f4565b90969095509350505050565b60008060008060006060868803121561419857600080fd5b8535945060208601356001600160401b03808211156141b657600080fd5b6141c289838a016140f4565b909650945060408801359150808211156141db57600080fd5b506141e8888289016140f4565b969995985093965092949392505050565b634e487b7160e01b600052604160045260246000fd5b604080519081016001600160401b0381118282101715614231576142316141f9565b60405290565b604051601f8201601f191681016001600160401b038111828210171561425f5761425f6141f9565b604052919050565b60006001600160401b03821115614280576142806141f9565b5060051b60200190565b600082601f83011261429b57600080fd5b813560206142b06142ab83614267565b614237565b82815260069290921b840181019181810190868411156142cf57600080fd5b8286015b8481101561431757604081890312156142ec5760008081fd5b6142f461420f565b81356142ff81613fb4565b815281850135858201528352918301916040016142d3565b509695505050505050565b600082601f83011261433357600080fd5b813560206143436142ab83614267565b82815260059290921b8401810191818101908684111561436257600080fd5b8286015b8481101561431757803561437981613fb4565b8352918301918301614366565b600082601f83011261439757600080fd5b81356001600160401b038111156143b0576143b06141f9565b6143c3601f8201601f1916602001614237565b8181528460208386010111156143d857600080fd5b816020850160208301376000918101602001919091529392505050565b600080600080600080600060e0888a03121561441057600080fd5b873561441b81613fb4565b965060208801359550604088013561443281613fb4565b945060608801356001600160401b038082111561444e57600080fd5b61445a8b838c0161428a565b955061446860808b01613fc9565b945060a08a013591508082111561447e57600080fd5b61448a8b838c01614322565b935060c08a01359150808211156144a057600080fd5b506144ad8a828b01614386565b91505092959891949750929550565b6000806000606084860312156144d157600080fd5b8335925060208401356144e381613fb4565b929592945050506040919091013590565b6000806040838503121561450757600080fd5b823561451281613fb4565b91506020830135613ffe81613fb4565b8015158114610d0a57600080fd5b6000806040838503121561454357600080fd5b823591506020830135613ffe81614522565b600081518084526020808501945080840160005b83811015613f4757815167ffffffffffffffff191687529582019590820190600101614569565b600081518084526020808501945080840160005b83811015613f475781511515875295820195908201906001016145a4565b600081518084526020808501945080840160005b83811015613f47578151805162ffffff168852838101518489015260409081015190880152606090960195908201906001016145d6565b602081528151602082015260006020830151614630604084018262ffffff169052565b50604083015162ffffff8116606084015250606083015180151560808401525060808301516001600160401b03811660a08401525060a08301516001600160401b03811660c08401525060c08301516101a08060e08501526146966101c0850183614555565b915060e0850151601f196101008187860301818801526146b68584613f0e565b9450808801519250506101208187860301818801526146d58584614590565b9450808801519250506101408187860301818801526146f485846145c2565b9450808801519250506101608187860301818801526147138584613f0e565b94508088015192505061018081878603018188015261473285846145c2565b908801518782039092018488015293509050613faa8382613f0e565b6001600160a01b0384811682528316602082015260606040820181905260009061477a90830184613f0e565b95945050505050565b60006020828403121561479557600080fd5b81356001600160401b038111156147ab57600080fd5b82016101a081850312156135fd57600080fd5b60a0815260006147d160a0830188613f0e565b82810360208401526147e38188614590565b905082810360408401526147f781876145c2565b9050828103606084015261480b8186613f0e565b9050828103608084015261481f81856145c2565b98975050505050505050565b634e487b7160e01b600052603260045260246000fd5b634e487b7160e01b600052601160045260246000fd5b8082018082111561208e5761208e614841565b8181038181111561208e5761208e614841565b6020808252600e908201526d3737ba10333937b69037bbb732b960911b604082015260600190565b6000600182016148b7576148b7614841565b5060010190565b805160208201516001600160e01b031980821692919060048310156148ed5780818460040360031b1b83161693505b505050919050565b8051602082015167ffffffffffffffff1980821692919060188310156148ed5760189290920360031b82901b161692915050565b60006020828403121561493b57600080fd5b5051919050565b60006020828403121561495457600080fd5b81356001600160401b03811681146135fd57600080fd5b60006020828403121561497d57600080fd5b81356135fd81614522565b6000808335601e1984360301811261499f57600080fd5b8301803591506001600160401b038211156149b957600080fd5b6020019150600581901b360382131561413857600080fd5b6000602082840312156149e357600080fd5b813567ffffffffffffffff19811681146135fd57600080fd5b6000808335601e19843603018112614a1357600080fd5b8301803591506001600160401b03821115614a2d57600080fd5b602001915060608102360382131561413857600080fd5b8135614a4f81614022565b62ffffff811662ffffff198354161782555060208201356001820155604082013560028201555050565b634e487b7160e01b600052603160045260246000fd5b808202811582820484141761208e5761208e614841565b600082614ac357634e487b7160e01b600052601260045260246000fd5b500490565b60005b83811015614ae3578181015183820152602001614acb565b50506000910152565b60008251614afe818460208701614ac8565b9190910192915050565b600060208284031215614b1a57600080fd5b81516135fd81614522565b6020815260008251806020840152614b44816040850160208701614ac8565b601f01601f1916919091016040019291505056fea26469706673582212207cdb73ae30209983443c55f4fa2a14c0879bb3c3b3db9a1da1efc1d77070c5d664736f6c63430008110033",
    "sourcePath": "//wsl$/Debian/home/wsl/openswap/scom-repos/scom-commission-proxy-contract/contracts/ProxyV3.sol",
    "compiler": {
        "name": "solc",
        "version": "0.8.17+commit.8df45f5f"
    },
    "functionHashes": {
        "addProjectAdmin(uint256,address)": "068c5391",
        "campaignAccumulatedCommission(uint256,address)": "f9492ad3",
        "claim(address)": "1e83409a",
        "claimMultiple(address[])": "f303ad6e",
        "claimMultipleProtocolFee(address[])": "32e879c7",
        "claimProtocolFee(address)": "f9738d42",
        "claimantIdCount()": "b316d714",
        "claimantIds(address,address)": "83e40a51",
        "claimantsInfo(uint256)": "d2ef8464",
        "deny(address)": "9c52a7f1",
        "getCampaign(uint256,bool)": "d224d9ec",
        "getCampaignArrayData1(uint256,uint256,uint256,uint256,uint256)": "0455f177",
        "getCampaignArrayData2(uint256,uint256,uint256,uint256,uint256)": "fec3e553",
        "getCampaignArrayLength(uint256)": "11e9ff02",
        "getClaimantBalance(address,address)": "d3b7d4c3",
        "getClaimantsInfo(uint256,uint256)": "188ff72b",
        "getProject(uint256)": "f0f3f2c8",
        "getProjectAdminsLength(uint256)": "4d3c5da1",
        "isPermitted(address)": "3fd8cc4e",
        "lastBalance(address)": "ee42d3a3",
        "newCampaign((uint256,uint24,uint24,bool,uint64,uint64,bytes24[],address[],bool[],(uint24,uint256,uint256)[],address[],(uint24,uint256,uint256)[],address[]))": "f1b5df2a",
        "newOwner()": "d4ee1d90",
        "newProject(address[])": "a5184fbf",
        "owner()": "8da5cb5b",
        "permit(address)": "a2f55ae5",
        "protocolFeeBalance(address)": "e5e05bd7",
        "protocolRate()": "99dd1566",
        "proxyCall(address,uint256,address,(address,uint256)[],address,address[],bytes)": "477b0af9",
        "removeProjectAdmin(uint256,address)": "368e9852",
        "setProtocolRate(uint24)": "1333af52",
        "skim(address[])": "b60c164c",
        "stake(uint256,address,uint256)": "6e9c931c",
        "stakeETH(uint256)": "6ecc20da",
        "stakeMultiple(uint256,address[],uint256[])": "3a8c874f",
        "stakesBalance(uint256,address)": "84fee38e",
        "takeOwnership()": "60536172",
        "takeoverProjectOwnership(uint256)": "7eb14034",
        "transferOwnership(address)": "f2fde38b",
        "transferProjectOwnership(uint256,address)": "dfecbd8e"
    },
    "gasEstimates": {
        "creation": {
            "codeDepositCost": "3868400",
            "executionCost": "infinite",
            "totalCost": "infinite"
        },
        "external": {
            "addProjectAdmin(uint256,address)": "83575",
            "campaignAccumulatedCommission(uint256,address)": "2704",
            "claim(address)": "infinite",
            "claimMultiple(address[])": "infinite",
            "claimMultipleProtocolFee(address[])": "infinite",
            "claimProtocolFee(address)": "infinite",
            "claimantIdCount()": "2429",
            "claimantIds(address,address)": "infinite",
            "claimantsInfo(uint256)": "6856",
            "deny(address)": "27889",
            "getCampaign(uint256,bool)": "infinite",
            "getCampaignArrayData1(uint256,uint256,uint256,uint256,uint256)": "infinite",
            "getCampaignArrayData2(uint256,uint256,uint256,uint256,uint256)": "infinite",
            "getCampaignArrayLength(uint256)": "11119",
            "getClaimantBalance(address,address)": "infinite",
            "getClaimantsInfo(uint256,uint256)": "infinite",
            "getProject(uint256)": "infinite",
            "getProjectAdminsLength(uint256)": "4690",
            "isPermitted(address)": "2571",
            "lastBalance(address)": "2602",
            "newCampaign((uint256,uint24,uint24,bool,uint64,uint64,bytes24[],address[],bool[],(uint24,uint256,uint256)[],address[],(uint24,uint256,uint256)[],address[]))": "infinite",
            "newOwner()": "2470",
            "newProject(address[])": "infinite",
            "owner()": "2470",
            "permit(address)": "27917",
            "protocolFeeBalance(address)": "2580",
            "protocolRate()": "2359",
            "proxyCall(address,uint256,address,(address,uint256)[],address,address[],bytes)": "infinite",
            "removeProjectAdmin(uint256,address)": "121769",
            "setProtocolRate(uint24)": "25696",
            "skim(address[])": "infinite",
            "stake(uint256,address,uint256)": "infinite",
            "stakeETH(uint256)": "infinite",
            "stakeMultiple(uint256,address[],uint256[])": "infinite",
            "stakesBalance(uint256,address)": "2727",
            "takeOwnership()": "51940",
            "takeoverProjectOwnership(uint256)": "254586",
            "transferOwnership(address)": "27814",
            "transferProjectOwnership(uint256,address)": "30439"
        },
        "internal": {
            "_addProjectAdmin(uint256,struct ProxyV3.Project storage pointer,address)": "78798",
            "_claim(contract IERC20)": "infinite",
            "_claimProtocolFee(contract IERC20)": "infinite",
            "_removeProjectAdmin(uint256,struct ProxyV3.Project storage pointer,address)": "infinite",
            "_safeTransferETH(address,uint256)": "infinite",
            "_stake(uint256,contract IERC20,uint256)": "infinite",
            "_transferAssetFrom(contract IERC20,uint256)": "infinite",
            "addToDistributions(struct ProxyV3.Campaign storage pointer,uint256,address,contract IERC20,uint256)": "infinite"
        }
    }
}